:020000040800F2
:100000000006002089010008C5010008C70100089A
:10001000C9010008CB010008CD0100080000000064
:10002000000000000000000000000000CF010008F8
:10003000D101000800000000D3010008D50100082C
:10004000D7010008D7010008D7010008D701000830
:10005000D7010008D7010008D7010008D701000820
:10006000D7010008D7010008D7010008D701000810
:10007000D7010008D7010008D7010008D701000800
:10008000D7010008D7010008D7010008D7010008F0
:10009000D7010008D7010008D7010008D7010008E0
:1000A000D7010008D7010008D7010008D7010008D0
:1000B000D7010008D7010008D7010008D7010008C0
:1000C000D7010008D7010008D7010008D7010008B0
:1000D000D7010008D7010008D7010008D7010008A0
:1000E000D7010008D7010008D7010008D701000890
:1000F000D7010008D7010008D7010008D701000880
:10010000D7010008D7010008D7010008D70100086F
:10011000D7010008D7010008D7010008D70100085F
:10012000D7010008D7010008D7010008D70100084F
:10013000D7010008D7010008D7010008D70100083F
:10014000D7010008D7010008D7010008D70100082F
:10015000D7010008D7010008D7010008D70100081F
:10016000D7010008D7010008D7010008D70100080F
:10017000D7010008D7010008D701000800000000DF
:10018000D7010008D701000816481749174B9942B4
:100190003CBF50F8042B41F8042BF8D314494FF01E
:1001A00000028B4238BF43F8042BFAD3DFF8440037
:1001B000016841F470010160BFF34F8FBFF36F8F8F
:1001C0000D480047FEE7FEE7FEE7FEE7FEE7FEE735
:1001D000FEE7FEE7FEE7FEE708480949094A0A4B41
:1001E00070470000F411000800000020000000200B
:1001F0000006002088ED00E06D0E000800000020E1
:100200000006002000020020000200207047704716
:100210007047000083B042F20001C4F20201086896
:1002200020F007000860086840F00200086041F212
:100230000001C4F20201086840F480700860FFE722
:1002400041F20000C4F2020000684005002801D419
:10025000FFE7F5E71020029041F20401C4F2020129
:10026000086820F0F8500860029A086840EA0260C6
:10027000086041F20001C4F20201086820F08070B9
:100280000860FFE741F20000C4F20200006880014C
:10029000002801D5FFE7F5E741F20C01C4F20201A5
:1002A0000191086820F003000860086840F002002F
:1002B00008600868142262F30E20086008680122B2
:1002C00062F306100860086820F0C06008600868E3
:1002D00040F08070086041F20001C4F20201086839
:1002E00040F080700860FFE741F20000C4F20200B5
:1002F00000688001002801D4FFE7F5E741F208011A
:10030000C4F20201086820F003000860086840F0A9
:1003100003000860FFE741F20800C4F20200006831
:1003200000F00C000C2801D0FFE7F4E741F20801CF
:10033000C4F20201086820F0F0000860086820F4A8
:10034000E0600860086820F46050086041F2000135
:10035000C4F20201086820F080600860FFE741F203
:100360000000C4F2020000684001002801D5FFE748
:10037000F5E741F21001C4F202010091086820F48F
:10038000FE400860086840F4C0500860086840F407
:1003900000300860086840F48030086041F20001D5
:1003A000C4F20201086840F080600860FFE741F293
:1003B0000000C4F2020000684001002801D4FFE7F9
:1003C000F5E741F28801C4F20201086820F4400018
:1003D000086041F26001C4F20201086840F40010B4
:1003E000086003B07047000041F24C01C4F2020102
:1003F000086840F0010008604FF09041086820F064
:10040000F0000860086840F0A00008602021C4F6F1
:100410000001086820F47F400860086840F4EE405E
:1004200008600821C4F60001086840F0F000086088
:100430000C21C4F60001086820F0F00008600421D7
:10044000C4F60001086820F00C0008607047000046
:1004500080B541F25801C4F20201086840F400304E
:10046000086041F28801C4F20201086820F00C0023
:100470000860086840F004000860FFF7B5FF44F228
:100480000040C4F2000000F029F880BD80B582B0C1
:10049000019000910199009A44F20040C4F20000DA
:1004A00000F094F802B080BD82B001900198642100
:1004B000414344F62510C2F29240A1FB0020091AE4
:1004C00000EB510080080090FFE700980138009091
:1004D00008B1FFE7F9E702B07047000081B0009073
:1004E0000099086820F0010008600099086820F071
:1004F000102008600099086820F400400860009906
:10050000486820F440504860009942F28D00C8606D
:100510000099086840F00C000860009844F600411B
:10052000C4F20001884224D1FFE70099086840F036
:10053000200008600099086820F0400008600099D9
:10054000086820F0100008600099086820F080001A
:1005500008600099086820F48070086000990868B5
:1005600020F0400008600099086820F00100086051
:10057000FFE7009844F20041C4F2000188420ED126
:10058000FFE70099086A40F04000086243F608015E
:10059000C4F20101086840F0C0000860FFE700995C
:1005A000086840F001000860FFE70098C069800219
:1005B000002801D4FFE7F8E7FFE70098C069400290
:1005C000002801D4FFE7F8E701B0704780B584B098
:1005D00003900291019200200090FFE7009801999A
:1005E000884216D2FFE7FFE70398C069000600289B
:1005F00001D4FFE7F8E702980099405C0399088569
:100600004FF49670FFF750FFFFE70098013000901D
:10061000E4E7FFE70398C0694006002801D4FFE73C
:10062000F8E70399C86920F04000C86104B080BDB4
:10063000BBF1080F26D0BBF1040F13D0BBF1020FA2
:1006400006D0BBF1010FFFD000B55DF804EB2FE041
:1006500000B500F0EFFC4FF0010B00F04BFA5DF835
:1006600004EB25E000B500F0E5FC4FF0020B00F0D4
:1006700041FA00F0DFFC4FF0010B00F03BFA5DF8AF
:1006800004EB15E000B500F0D5FC4FF0040B00F0D2
:1006900031FA00F0CFFC4FF0020B00F02BFA00F023
:1006A000C9FC4FF0010B00F025FA5DF804EBFFE701
:1006B0002AF0010A00B500F0A9FB5DF804EB7047D1
:1006C000BBF1080F20D0BBF1040F13D0BBF1020F18
:1006D0000CD0BBF1010FFFD000B500F01BFD4FF0B7
:1006E000020B00F007FA5DF804EB1DE000B55DF8C1
:1006F00004EB19E000B500F09DFC4FF0020B00F098
:10070000F9F95DF804EB0FE000B500F093FC4FF051
:10071000040B00F0EFF900F08DFC4FF0020B00F03D
:10072000E9F95DF804EBFFE72AF0020A00B500F0F2
:100730006DFB5DF804EB7047BBF1080F26D0BBF1F1
:10074000040F1FD0BBF1020F12D0BBF1010FFFD07D
:1007500000B500F0DFFC4FF0020B00F0CBF900F029
:10076000D9FC4FF0040B00F0C5F95DF804EB17E07D
:1007700000B500F0CFFC4FF0040B00F0BBF95DF8C2
:1007800004EB0DE000B55DF804EB09E000B500F006
:1007900051FC4FF0040B00F0ADF95DF804EBFFE7FE
:1007A0002AF0040A00B500F031FB5DF804EB704755
:1007B000BBF1080F08D0BBF1040F09D0BBF1020F49
:1007C00010D0BBF1010F1DD000B55DF804EB2FE098
:1007D00000B500F09FFC4FF0080B00F08BF95DF8BE
:1007E00004EB25E000B500F095FC4FF0040B00F0A1
:1007F00081F900F08FFC4FF0080B00F07BF95DF8F9
:1008000004EB15E000B500F085FC4FF0020B00F0A2
:1008100071F900F07FFC4FF0040B00F06BF900F071
:1008200079FC4FF0080B00F065F95DF804EBFFE789
:100830002AF0080A00B500F0E9FA5DF804EB704709
:10084000BAF1FF3F3FF4F4AEBAF1080F3FF4B0AF96
:10085000BAF1040F3FF470AFBAF1020F3FF430AFBA
:10086000BAF1010F3FF4E4AE704700001B48016984
:1008700001F02002202A00D104D00AF0000A4AF038
:10088000FF3A25D11648016901F08002802A00D183
:1008900001D04AF0080A1148016901F40052B2F58A
:1008A000005F00D101D04AF0040A4FF09040016986
:1008B00001F01002102A00D101D04AF0020A0848C3
:1008C000016901F00102012A00D101D04AF0010AB8
:1008D00000B500F09BFA5DF804EB70470008004893
:1008E000000400484FF000074FF000054FF06C097E
:1008F00004E005F101054D4500D171D04FF0904263
:100900005369384A5469384A556923F0400324F43E
:10091000407425F4007543F0000344F4807445F4FA
:1009200000754FF0904253612E4A54612E4A556132
:1009300023F0400324F4407425F400754FF6FF7053
:10094000A0F101000028FBD143F0000344F44074FF
:1009500045F000054FF090425361224A5461224A0B
:10096000556123F0400324F4407425F400754FF6DC
:10097000FF70A0F101000028FBD143F0400344F4D4
:10098000007445F000054FF090425361154A5461E0
:10099000154A556123F0400324F4407425F4007592
:1009A0004FF6FF70A0F101000028FBD143F0400397
:1009B00044F0000445F400754FF090425361094A39
:1009C0005461094A556123F0400324F4407425F42E
:1009D00000754FF6FF70A0F101000028FBD188E7F9
:1009E0007047000000040048000800484FF000076E
:1009F0004FF000054FF00A0904E005F101054D45EF
:100A000000D171D04FF090425369384A5469384A46
:100A1000556923F0400324F4407425F4007543F035
:100A2000400344F0000445F400754FF090425361D8
:100A30002E4A54612E4A556123F0400324F4407439
:100A400025F400754FF6FF70A0F101000028FBD1DE
:100A500043F0400344F4007445F000054FF0904229
:100A60005361224A5461224A556123F0400324F421
:100A7000407425F400754FF6FF70A0F101000028C6
:100A8000FBD143F0000344F4407445F000054FF0FF
:100A900090425361154A5461154A556123F0400351
:100AA00024F4407425F400754FF6FF70A0F10100A6
:100AB0000028FBD143F0000344F4807445F4007532
:100AC0004FF090425361094A5461094A556123F03D
:100AD000400324F4407425F400754FF6FF70A0F134
:100AE00001000028FBD188E770470000000400489F
:100AF00000080048BBF1010F08D0BBF1020F18D06D
:100B0000BBF1040F28D0BBF1080F3AD04FF0904052
:100B1000416921F0030141F002014161234841692B
:100B200021F4006141612248416921F004014161E1
:100B30003AE04FF09040416921F0030141611B48C8
:100B4000416921F4006141F4006141611848416943
:100B500021F00401416127E04FF09040416921F00C
:100B6000030141F0020141611048416921F4006133
:100B700041F4006141610E48416921F00401416185
:100B800012E04FF09040416921F0030141610748B4
:100B9000416921F4006141610548416921F0040186
:100BA00041F004014161FFE7704700000008004880
:100BB000000C00489348416921F46041416192482A
:100BC000416921F01001416142F20F70A0F1010072
:100BD0000028FBD18B4A41F60400136903EA0003A5
:100BE0004FF09042146904F4006404EB030542F2F0
:100BF00004008542DED0FFD18248416921F4604182
:100C000041F4604141618048416921F0100141F0A7
:100C10000001416142F20F70A0F101000028FBD1F8
:100C2000784A41F60400136903EA00034FF090424A
:100C3000146904F4006404EB030542F204008542E5
:100C40004FF0000600D078D16E48416921F4604130
:100C500041F4404141616C48416921F0100141F08B
:100C60001001416142F20F70A0F101000028FBD198
:100C7000644A41F60400136903EA00034FF090420E
:100C8000146904F4006404EB030542F20400854295
:100C90004FF0100600D050D15A48416921F460410C
:100CA00041F4204141615848416921F0100141F06F
:100CB0001001416142F20F74A4F10104002CFBD138
:100CC000504A41F60400136903EA00034FF09042D2
:100CD000146904F4006404EB030542F20400854245
:100CE0004FF0200600D028D14648416921F46041E8
:100CF00041F4C04141614448416921F0100141F093
:100D00001001416142F20F74A4F10104002CFBD1E7
:100D10003C4A41F60400136903EA00034FF0904295
:100D2000146904F4006404EB030542F204008542F4
:100D30004FF030063FF43EAFFFD1324A136903F063
:100D40000403002B4FF000071DD0FFD12D4A13697B
:100D500003F40063002B4FF0010714D0FFD1294AA0
:100D6000136903F48053002B4FF002070BD0FFD11F
:100D70004FF09042136903F40063002B4FF0030718
:100D800001D07FF417AF06EB0708B8F1000F2CD0A5
:100D9000B8F1010F2CD0B8F1020F2CD0B8F1030F2D
:100DA0002FD0B8F1100F29D0B8F1110F29D0B8F118
:100DB000120F26D0B8F1130F23D0B8F1200F20D096
:100DC000B8F1210F1DD0B8F1220F1AD0B8F1230FBE
:100DD00017D0B8F1300F14D0B8F1310F11D0B8F1ED
:100DE000320F0ED0B8F1330F0BD04AF0010A08E0F1
:100DF0004AF0020A05E04AF0040A02E04AF0080A52
:100E0000FFE77047000400480008004816484169A1
:100E1000BAF1FF3F00D004D121F00F0141F00201EF
:100E200020E0BAF1000F08BF21F00F010AF0010322
:100E3000012B00D001D141F002010AF00203022B84
:100E400000D001D141F001010AF00403042B00D0CD
:100E500001D141F008010AF00803082B00D001D1AC
:100E600041F004014161704700080048FFF7D2F9E2
:100E7000FFF7EEFA6B48C16C21F00F0141F00F0152
:100E8000C164016E41F0010101664FF090400168BC
:100E900021F00F0141F0050101606348016821F470
:100EA000700141F4800101606048016821F0F001A7
:100EB00041F0100101605C48016821F00F0121F050
:100EC000F00141F0050141F05001016056484168D0
:100ED00021F00F0141604FF09040016821F4407112
:100EE00001605148016821F040610160504801688B
:100EF00021F4404121F0030101604B48C16821F019
:100F0000406141F08061C1604948C16821F44041BD
:100F100021F0030141F4804141F00101C1604FF033
:100F20009040C16821F4407141F48071C1604FF07C
:100F30009040016821F4405141F4805101603C48E7
:100F4000016821F4702141F4A02101603648016854
:100F500021F4402141F4802101604FF0904001686C
:100F600021F0405121F0406141F0805141F0806119
:100F700001602D48016821F0407121F4401141F0D9
:100F8000887101602848016821F4005121F4406112
:100F900001602548C16821F4005121F44061C1601D
:100FA0002348016821F07C4141F0A84101601E48BE
:100FB000016821F4407141F4807101601C480168AE
:100FC00021F0707121F030010160C16821F0707171
:100FD00021F0300141F0A07141F01001C1604FF0EB
:100FE0009040016821F440010160C16821F4400192
:100FF00041F48001C1604FF0000A4FF000094FF04A
:10100000010BFFF777FDBAF1000F00D105D0FFF714
:1010100017BCBAF1FF3F03D0F5E7FFF727FCF2E773
:10102000FEE700000010024000080048000C0048E5
:10103000000400484FF000074FF000054FF06C0926
:1010400004E005F101054D4500D15FD04FF090421D
:1010500053692F4A546923F4C04324F4805424F480
:10106000806443F0000344F4A0544FF09042536175
:10107000274A546123F4C04324F4805424F4806448
:101080004FF6FF70A0F101000028FBD143F480432C
:1010900044F480544FF0904253611D4A546123F44C
:1010A000C04324F4805424F480644FF6FF70A0F110
:1010B00001000028FBD143F4C04344F000044FF08A
:1010C00090425361124A546123F4C04324F4805483
:1010D00024F480644FF6FF70A0F101000028FBD1DA
:1010E00043F4005344F480644FF090425361084A43
:1010F000546123F4C04324F4805424F480644FF6F4
:10110000FF70A0F101000028FBD19AE770470000B2
:10111000000800484FF000074FF000054FF06C0941
:1011200004E005F101054D4500D15FD04FF090423C
:1011300053692F4A546923F4C04324F4805424F49F
:10114000806443F4005344F480644FF09042536150
:10115000274A546123F4C04324F4805424F4806467
:101160004FF6FF70A0F101000028FBD143F4C0430B
:1011700044F000044FF0904253611D4A546123F43F
:10118000C04324F4805424F480644FF6FF70A0F12F
:1011900001000028FBD143F4804344F480544FF015
:1011A00090425361124A546123F4C04324F48054A2
:1011B00024F480644FF6FF70A0F101000028FBD1F9
:1011C00043F0000344F4A0544FF090425361084AA6
:1011D000546123F4C04324F4805424F480644FF613
:1011E000FF70A0F101000028FBD19AE770470000D2
:0411F00000080048AB
:0400000500000000F7
:00000001FF
