:020000040800F2
:100000000006002089010008C5010008C70100089A
:10001000C9010008CB010008CD0100080000000064
:10002000000000000000000000000000CF010008F8
:10003000D101000800000000D3010008D50100082C
:10004000D7010008D7010008D7010008D701000830
:10005000D7010008D7010008D7010008D701000820
:10006000D7010008D7010008D7010008D701000810
:10007000D7010008D7010008D7010008D701000800
:10008000D7010008D7010008D7010008D7010008F0
:10009000D7010008D7010008D7010008D7010008E0
:1000A000D7010008D7010008D7010008D7010008D0
:1000B000D7010008D7010008D7010008D7010008C0
:1000C000D7010008D7010008D7010008D7010008B0
:1000D000D7010008D7010008D7010008D7010008A0
:1000E000D7010008D7010008D7010008D701000890
:1000F000D7010008D7010008D7010008D701000880
:10010000D7010008D7010008D7010008D70100086F
:10011000D7010008D7010008D7010008D70100085F
:10012000D7010008D7010008D7010008D70100084F
:10013000D7010008D7010008D7010008D70100083F
:10014000D7010008D7010008D7010008D70100082F
:10015000D7010008D7010008D7010008D70100081F
:10016000D7010008D7010008D7010008D70100080F
:10017000D7010008D7010008D701000800000000DF
:10018000D7010008D701000816481749174B9942B4
:100190003CBF50F8042B41F8042BF8D314494FF01E
:1001A00000028B4238BF43F8042BFAD3DFF8440037
:1001B000016841F470010160BFF34F8FBFF36F8F8F
:1001C0000D480047FEE7FEE7FEE7FEE7FEE7FEE735
:1001D000FEE7FEE7FEE7FEE708480949094A0A4B41
:1001E00070470000201200080000002000000020DE
:1001F0000006002088ED00E09D0E000800000020B1
:100200000006002000020020000200207047704716
:100210007047000083B042F20001C4F20201086896
:1002200020F007000860086840F00200086041F212
:100230000001C4F20201086840F480700860FFE722
:1002400041F20000C4F2020000684005002801D419
:10025000FFE7F5E71020029041F20401C4F2020129
:10026000086820F0F8500860029A086840EA0260C6
:10027000086041F20001C4F20201086820F08070B9
:100280000860FFE741F20000C4F20200006880014C
:10029000002801D5FFE7F5E741F20C01C4F20201A5
:1002A0000191086820F003000860086840F002002F
:1002B00008600868142262F30E20086008680122B2
:1002C00062F306100860086820F0C06008600868E3
:1002D00040F08070086041F20001C4F20201086839
:1002E00040F080700860FFE741F20000C4F20200B5
:1002F00000688001002801D4FFE7F5E741F208011A
:10030000C4F20201086820F003000860086840F0A9
:1003100003000860FFE741F20800C4F20200006831
:1003200000F00C000C2801D0FFE7F4E741F20801CF
:10033000C4F20201086820F0F0000860086820F4A8
:10034000E0600860086820F46050086041F2000135
:10035000C4F20201086820F080600860FFE741F203
:100360000000C4F2020000684001002801D5FFE748
:10037000F5E741F21001C4F202010091086820F48F
:10038000FE400860086840F4C0500860086840F407
:1003900000300860086840F48030086041F20001D5
:1003A000C4F20201086840F080600860FFE741F293
:1003B0000000C4F2020000684001002801D4FFE7F9
:1003C000F5E741F28801C4F20201086820F4400018
:1003D000086041F26001C4F20201086840F40010B4
:1003E000086003B07047000041F24C01C4F2020102
:1003F000086840F0010008604FF09041086820F064
:10040000F0000860086840F0A00008602021C4F6F1
:100410000001086820F47F400860086840F4EE405E
:1004200008600821C4F60001086840F0F000086088
:100430000C21C4F60001086820F0F00008600421D7
:10044000C4F60001086820F00C0008607047000046
:1004500080B541F25801C4F20201086840F400304E
:10046000086041F28801C4F20201086820F00C0023
:100470000860086840F004000860FFF7B5FF44F228
:100480000040C4F2000000F029F880BD80B582B0C1
:10049000019000910199009A44F20040C4F20000DA
:1004A00000F094F802B080BD82B001900198642100
:1004B000414344F62510C2F29240A1FB0020091AE4
:1004C00000EB510080080090FFE700980138009091
:1004D00008B1FFE7F9E702B07047000081B0009073
:1004E0000099086820F0010008600099086820F071
:1004F000102008600099086820F400400860009906
:10050000486820F440504860009942F28D00C8606D
:100510000099086840F00C000860009844F600411B
:10052000C4F20001884224D1FFE70099086840F036
:10053000200008600099086820F0400008600099D9
:10054000086820F0100008600099086820F080001A
:1005500008600099086820F48070086000990868B5
:1005600020F0400008600099086820F00100086051
:10057000FFE7009844F20041C4F2000188420ED126
:10058000FFE70099086A40F04000086243F608015E
:10059000C4F20101086840F0C0000860FFE700995C
:1005A000086840F001000860FFE70098C069800219
:1005B000002801D4FFE7F8E7FFE70098C069400290
:1005C000002801D4FFE7F8E701B0704780B584B098
:1005D00003900291019200200090FFE7009801999A
:1005E000884216D2FFE7FFE70398C069000600289B
:1005F00001D4FFE7F8E702980099405C0399088569
:100600004FF49670FFF750FFFFE70098013000901D
:10061000E4E7FFE70398C0694006002801D4FFE73C
:10062000F8E70399C86920F04000C86104B080BDB4
:10063000BBF1080F26D0BBF1040F13D0BBF1020FA2
:1006400006D0BBF1010FFFD000B55DF804EB2FE041
:1006500000B500F005FD4FF0010B00F063FA5DF806
:1006600004EB25E000B500F0FBFC4FF0020B00F0BE
:1006700059FA00F0F5FC4FF0010B00F053FA5DF869
:1006800004EB15E000B500F0EBFC4FF0040B00F0BC
:1006900049FA00F0E5FC4FF0020B00F043FA00F0DD
:1006A000DFFC4FF0010B00F03DFA5DF804EBFFE7D3
:1006B0002AF0010A00B500F0C1FB00F0AFF900F02C
:1006C00029F95DF804EB7047BBF1080F20D0BBF1AE
:1006D000040F13D0BBF1020F0CD0BBF1010FFFD000
:1006E00000B500F02DFD4FF0020B00F01BFA5DF895
:1006F00004EB1DE000B55DF804EB19E000B500F077
:10070000AFFC4FF0020B00F00DFA5DF804EB0FE0C8
:1007100000B500F0A5FC4FF0040B00F003FA00F068
:100720009FFC4FF0020B00F0FDF95DF804EBFFE7D2
:100730002AF0020A00B500F081FB00F06FF900F02A
:10074000E9F85DF804EB7047BBF1080F26D0BBF168
:10075000040F1FD0BBF1020F12D0BBF1010FFFD06D
:1007600000B500F0EDFC4FF0020B00F0DBF900F0FB
:10077000E7FC4FF0040B00F0D5F95DF804EB17E04F
:1007800000B500F0DDFC4FF0040B00F0CBF95DF894
:1007900004EB0DE000B55DF804EB09E000B500F0F6
:1007A0005FFC4FF0040B00F0BDF95DF804EBFFE7D0
:1007B0002AF0040A00B500F041FB00F02FF900F028
:1007C000A9F85DF804EB7047BBF1080F08D0BBF146
:1007D000040F09D0BBF1020F10D0BBF1010F1DD0E7
:1007E00000B55DF804EB2FE000B500F0A9FC4FF078
:1007F000080B00F097F95DF804EB25E000B500F078
:100800009FFC4FF0040B00F08DF900F099FC4FF0C5
:10081000080B00F087F95DF804EB15E000B500F077
:100820008FFC4FF0020B00F07DF900F089FC4FF0D7
:10083000040B00F077F900F083FC4FF0080B00F098
:1008400071F95DF804EBFFE72AF0080A00B500F043
:10085000F5FA00F0E3F800F05DF85DF804EB70479E
:1008600000B5BAF1FF3F08BFFFF7E2FEBAF1080F8B
:1008700008BFFFF7A9FFBAF1040F08BFFFF764FF35
:10088000BAF1020F08BFFFF71FFFBAF1010F08BF4F
:10089000FFF7CEFE5DF804EB704700001B480169CE
:1008A00001F02002202A00D104D00AF0000A4AF008
:1008B000FF3A25D11648016901F08002802A00D153
:1008C00001D04AF0080A1148016901F40052B2F55A
:1008D000005F00D101D04AF0040A4FF09040016956
:1008E00001F01002102A00D101D04AF0020A084893
:1008F000016901F00102012A00D101D04AF0010A88
:1009000000B500F09BFA5DF804EB70470008004862
:10091000000400484FF000074FF000054FF06C094D
:1009200004E007F101074F4500D171D04FF090422C
:100930005369384A5469384A556923F0400324F40E
:10094000407425F4007543F0000344F4807445F4CA
:1009500000754FF0904253612E4A54612E4A556102
:1009600023F0400324F4407425F400754FF6FF7023
:10097000A0F101000028FBD143F0000344F44074CF
:1009800045F000054FF090425361224A5461224ADB
:10099000556123F0400324F4407425F400754FF6AC
:1009A000FF70A0F101000028FBD143F0400344F4A4
:1009B000007445F000054FF090425361154A5461B0
:1009C000154A556123F0400324F4407425F4007562
:1009D0004FF6FF70A0F101000028FBD143F0400367
:1009E00044F0000445F400754FF090425361094A09
:1009F0005461094A556123F0400324F4407425F4FE
:100A000000754FF6FF70A0F101000028FBD188E7C8
:100A10007047000000040048000800484FF000073D
:100A20004FF000054FF06C0904E007F101074F4556
:100A300000D171D04FF090425369384A5469384A16
:100A4000556923F0400324F4407425F4007543F005
:100A5000400344F0000445F400754FF090425361A8
:100A60002E4A54612E4A556123F0400324F4407409
:100A700025F400754FF6FF70A0F101000028FBD1AE
:100A800043F0400344F4007445F000054FF09042F9
:100A90005361224A5461224A556123F0400324F4F1
:100AA000407425F400754FF6FF70A0F10100002896
:100AB000FBD143F0000344F4407445F000054FF0CF
:100AC00090425361154A5461154A556123F0400321
:100AD00024F4407425F400754FF6FF70A0F1010076
:100AE0000028FBD143F0000344F4807445F4007502
:100AF0004FF090425361094A5461094A556123F00D
:100B0000400324F4407425F400754FF6FF70A0F103
:100B100001000028FBD188E770470000000400486E
:100B200000080048BBF1010F08D0BBF1020F18D03C
:100B3000BBF1040F28D0BBF1080F3AD04FF0904022
:100B4000416921F0030141F00201416123484169FB
:100B500021F4006141612248416921F004014161B1
:100B60003AE04FF09040416921F0030141611B4898
:100B7000416921F4006141F4006141611848416913
:100B800021F00401416127E04FF09040416921F0DC
:100B9000030141F0020141611048416921F4006103
:100BA00041F4006141610E48416921F00401416155
:100BB00012E04FF09040416921F003014161074884
:100BC000416921F4006141610548416921F0040156
:100BD00041F004014161FFE7704700000008004850
:100BE000000C00489348416921F4604141619248FA
:100BF000416921F01001416142F20F70A0F1010042
:100C00000028FBD18B4A41F60400136903EA000374
:100C10004FF09042146904F4006404EB030542F2BF
:100C200004008542DED0FFD18248416921F4604151
:100C300041F4604141618048416921F0100141F077
:100C40000001416142F20F70A0F101000028FBD1C8
:100C5000784A41F60400136903EA00034FF090421A
:100C6000146904F4006404EB030542F204008542B5
:100C70004FF0000600D078D16E48416921F4604100
:100C800041F4404141616C48416921F0100141F05B
:100C90001001416142F20F70A0F101000028FBD168
:100CA000644A41F60400136903EA00034FF09042DE
:100CB000146904F4006404EB030542F20400854265
:100CC0004FF0100600D050D15A48416921F46041DC
:100CD00041F4204141615848416921F0100141F03F
:100CE0001001416142F20F74A4F10104002CFBD108
:100CF000504A41F60400136903EA00034FF09042A2
:100D0000146904F4006404EB030542F20400854214
:100D10004FF0200600D028D14648416921F46041B7
:100D200041F4C04141614448416921F0100141F062
:100D30001001416142F20F74A4F10104002CFBD1B7
:100D40003C4A41F60400136903EA00034FF0904265
:100D5000146904F4006404EB030542F204008542C4
:100D60004FF030063FF43EAFFFD1324A136903F033
:100D70000403002B4FF000071DD0FFD12D4A13694B
:100D800003F40063002B4FF0010714D0FFD1294A70
:100D9000136903F48053002B4FF002070BD0FFD1EF
:100DA0004FF09042136903F40063002B4FF00307E8
:100DB00001D07FF417AF06EB0708B8F1000F2CD075
:100DC000B8F1010F2CD0B8F1020F2CD0B8F1030FFD
:100DD0002FD0B8F1100F29D0B8F1110F29D0B8F1E8
:100DE000120F26D0B8F1130F23D0B8F1200F20D066
:100DF000B8F1210F1DD0B8F1220F1AD0B8F1230F8E
:100E000017D0B8F1300F14D0B8F1310F11D0B8F1BC
:100E1000320F0ED0B8F1330F0BD04AF0010A08E0C0
:100E20004AF0020A05E04AF0040A02E04AF0080A21
:100E3000FFE7704700040048000800481648416971
:100E4000BAF1FF3F00D004D121F00F0141F00201BF
:100E500020E0BAF1000F08BF21F00F010AF00103F2
:100E6000012B00D001D141F002010AF00203022B54
:100E700000D001D141F001010AF00403042B00D09D
:100E800001D141F008010AF00803082B00D001D17C
:100E900041F004014161704700080048FFF7BAF9CA
:100EA000FFF7D6FA6A48C16C21F00F0141F00F013B
:100EB000C164016E41F0010101664FF0904001688C
:100EC00021F00F0141F0050101606248016821F441
:100ED000700141F4800101605F48016821F0F00178
:100EE00041F0100101605B48016821F00F0121F021
:100EF000F00141F0050141F05001016055484168A1
:100F000021F00F0141604FF09040016821F44071E1
:100F100001605048016821F0406101604F4801685C
:100F200021F4404121F0030101604A48C16821F0E9
:100F3000406141F08061C1604848C16821F440418E
:100F400021F0030141F4804141F00101C1604FF003
:100F50009040C16821F4407141F48071C1604FF04C
:100F60009040016821F4405141F4805101603B48B8
:100F7000016821F4702141F4A02101603548016825
:100F800021F4402141F4802101604FF0904001683C
:100F900021F0405121F0406141F0805141F08061E9
:100FA00001602C48016821F0407121F4401141F0AA
:100FB000887101602748016821F4005121F44061E3
:100FC00001602448C16821F4005121F44061C160EE
:100FD0002248016821F07C4141F0A84101601D4890
:100FE000016821F4407141F4807101601B4801687F
:100FF00021F0707121F030010160C16821F0707141
:1010000021F0300141F0A07141F01001C1604FF0BA
:101010009040016821F440010160C16821F4400161
:1010200041F48001C1604FF0000A4FF0010BFFF75F
:1010300079FDBAF1000F00D105D0FFF711BCBAF16C
:10104000FF3F03D0F5E7FFF729BCF2E7FEE700001A
:101050000010024000080048000C0048000400484E
:101060004FF000074FF000054FF06C0904E005F168
:1010700001054D4500D15FD04FF0904253692F4A92
:10108000546923F4C04324F4805424F4806443F06E
:10109000000344F4A0544FF090425361274A546136
:1010A00023F4C04324F4805424F480644FF6FF708A
:1010B000A0F101000028FBD143F4804344F48054A4
:1010C0004FF0904253611D4A546123F4C04324F40D
:1010D000805424F480644FF6FF70A0F101000028D2
:1010E000FBD143F4C04344F000044FF090425361FD
:1010F000124A546123F4C04324F4805424F48064DD
:101100004FF6FF70A0F101000028FBD143F400531B
:1011100044F480644FF090425361084A546123F4D0
:10112000C04324F4805424F480644FF6FF70A0F18F
:1011300001000028FBD19AE7704700000008004832
:101140004FF000074FF000054FF06C0904E005F187
:1011500001054D4500D15FD04FF0904253692F4AB1
:10116000546923F4C04324F4805424F4806443F489
:10117000005344F480644FF090425361274A546115
:1011800023F4C04324F4805424F480644FF6FF70A9
:10119000A0F101000028FBD143F4C04344F0000457
:1011A0004FF0904253611D4A546123F4C04324F42C
:1011B000805424F480644FF6FF70A0F101000028F1
:1011C000FBD143F4804344F480544FF09042536188
:1011D000124A546123F4C04324F4805424F48064FC
:1011E0004FF6FF70A0F101000028FBD143F000038F
:1011F00044F4A0544FF090425361084A546123F4E0
:10120000C04324F4805424F480644FF6FF70A0F1AE
:1012100001000028FBD19AE7704700000008004851
:0400000500000000F7
:00000001FF
